{
  "contractName": "ChainContract",
  "abi": [
    {
      "constant": true,
      "inputs": [],
      "name": "getMyAddress",
      "outputs": [
        {
          "name": "",
          "type": "address"
        }
      ],
      "payable": false,
      "stateMutability": "view",
      "type": "function",
      "signature": "0x9a166299"
    }
  ],
  "bytecode": "0x608060405234801561001057600080fd5b5060cc8061001f6000396000f3fe608060405260043610603f576000357c0100000000000000000000000000000000000000000000000000000000900463ffffffff1680639a166299146044575b600080fd5b348015604f57600080fd5b5060566098565b604051808273ffffffffffffffffffffffffffffffffffffffff1673ffffffffffffffffffffffffffffffffffffffff16815260200191505060405180910390f35b60003390509056fea165627a7a723058206fdc331b417f201d1f0b9c8863f1284de032c9616242b72258a41cb3c658118f0029",
  "source": "pragma solidity ^0.5.0;\r\n\r\ncontract ChainContract {\r\n\r\n    function getMyAddress() public view returns (address) {\r\n        return msg.sender;\r\n    }\r\n}",
  "sourcePath": "C:/Rajesh/Development/Source/Practices/ethereum/contracts/ChainContract.sol",
  "compiler": {
    "name": "solc",
    "version": "0.5.0+commit.1d4f565a.Emscripten.clang"
  },
  "schemaVersion": "3.0.1",
  "updatedAt": "2019-01-27T08:27:59.718Z",
  "devdoc": {
    "methods": {}
  },
  "userdoc": {
    "methods": {}
  }
}