{
  "contractName": "DinnerContract",
  "abi": [
    {
      "constant": true,
      "inputs": [
        {
          "name": "",
          "type": "uint256"
        }
      ],
      "name": "participents",
      "outputs": [
        {
          "name": "id",
          "type": "uint256"
        },
        {
          "name": "isComing",
          "type": "bool"
        },
        {
          "name": "name",
          "type": "string"
        },
        {
          "name": "pAddress",
          "type": "address"
        }
      ],
      "payable": false,
      "stateMutability": "view",
      "type": "function",
      "signature": "0x3bfcd7c5"
    },
    {
      "constant": true,
      "inputs": [],
      "name": "currentNoOfParticipents",
      "outputs": [
        {
          "name": "",
          "type": "uint256"
        }
      ],
      "payable": false,
      "stateMutability": "view",
      "type": "function",
      "signature": "0x90a9eb56"
    },
    {
      "inputs": [],
      "payable": false,
      "stateMutability": "nonpayable",
      "type": "constructor",
      "signature": "constructor"
    },
    {
      "constant": true,
      "inputs": [],
      "name": "getPartcipents",
      "outputs": [
        {
          "name": "",
          "type": "address[10]"
        }
      ],
      "payable": false,
      "stateMutability": "view",
      "type": "function",
      "signature": "0xf09a5ba4"
    },
    {
      "constant": false,
      "inputs": [
        {
          "name": "name",
          "type": "string"
        },
        {
          "name": "isComing",
          "type": "bool"
        }
      ],
      "name": "updateParticipentState",
      "outputs": [],
      "payable": false,
      "stateMutability": "nonpayable",
      "type": "function",
      "signature": "0x78892a90"
    }
  ],
  "bytecode": "0x608060405234801561001057600080fd5b50608060405190810160405280600181526020016001151581526020016040805190810160405280600981526020017f4f7267616e7a696572000000000000000000000000000000000000000000000081525081526020013373ffffffffffffffffffffffffffffffffffffffff1681525060016000600a8110151561009257fe5b600402016000820151816000015560208201518160010160006101000a81548160ff02191690831515021790555060408201518160020190805190602001906100dc929190610134565b5060608201518160030160006101000a81548173ffffffffffffffffffffffffffffffffffffffff021916908373ffffffffffffffffffffffffffffffffffffffff16021790555090505060016029819055506101d9565b828054600181600116156101000203166002900490600052602060002090601f016020900481019282601f1061017557805160ff19168380011785556101a3565b828001600101855582156101a3579182015b828111156101a2578251825591602001919060010190610187565b5b5090506101b091906101b4565b5090565b6101d691905b808211156101d25760008160009055506001016101ba565b5090565b90565b6106ce806101e86000396000f3fe608060405260043610610062576000357c0100000000000000000000000000000000000000000000000000000000900463ffffffff1680633bfcd7c51461006757806378892a901461016057806390a9eb5614610234578063f09a5ba41461025f575b600080fd5b34801561007357600080fd5b506100a06004803603602081101561008a57600080fd5b81019080803590602001909291905050506102b2565b6040518085815260200184151515158152602001806020018373ffffffffffffffffffffffffffffffffffffffff1673ffffffffffffffffffffffffffffffffffffffff168152602001828103825284818151815260200191508051906020019080838360005b83811015610122578082015181840152602081019050610107565b50505050905090810190601f16801561014f5780820380516001836020036101000a031916815260200191505b509550505050505060405180910390f35b34801561016c57600080fd5b506102326004803603604081101561018357600080fd5b81019080803590602001906401000000008111156101a057600080fd5b8201836020820111156101b257600080fd5b803590602001918460018302840111640100000000831117156101d457600080fd5b91908080601f016020809104026020016040519081016040528093929190818152602001838380828437600081840152601f19601f8201169050808301925050505050505091929192908035151590602001909291905050506103ac565b005b34801561024057600080fd5b50610249610523565b6040518082815260200191505060405180910390f35b34801561026b57600080fd5b50610274610529565b6040518082600a60200280838360005b8381101561029f578082015181840152602081019050610284565b5050505090500191505060405180910390f35b600181600a811015156102c157fe5b600402016000915090508060000154908060010160009054906101000a900460ff1690806002018054600181600116156101000203166002900480601f01602080910402602001604051908101604052809291908181526020018280546001816001161561010002031660029004801561037c5780601f106103515761010080835404028352916020019161037c565b820191906000526020600020905b81548152906001019060200180831161035f57829003601f168201915b5050505050908060030160009054906101000a900473ffffffffffffffffffffffffffffffffffffffff16905084565b8080156103bb5750600a602954105b151561042f576040517f08c379a000000000000000000000000000000000000000000000000000000000815260040180806020018281038252600d8152602001807f4e6f205365617473206c6566740000000000000000000000000000000000000081525060200191505060405180910390fd5b608060405190810160405280602960008154600101919050819055815260200182151581526020018381526020013373ffffffffffffffffffffffffffffffffffffffff1681525060018060295403600a8110151561048a57fe5b600402016000820151816000015560208201518160010160006101000a81548160ff02191690831515021790555060408201518160020190805190602001906104d49291906105d9565b5060608201518160030160006101000a81548173ffffffffffffffffffffffffffffffffffffffff021916908373ffffffffffffffffffffffffffffffffffffffff1602179055509050505050565b60295481565b610531610659565b610539610659565b60008090505b600a8110156105d157600181600a8110151561055757fe5b6004020160030160009054906101000a900473ffffffffffffffffffffffffffffffffffffffff168282600a8110151561058d57fe5b602002019073ffffffffffffffffffffffffffffffffffffffff16908173ffffffffffffffffffffffffffffffffffffffff1681525050808060010191505061053f565b508091505090565b828054600181600116156101000203166002900490600052602060002090601f016020900481019282601f1061061a57805160ff1916838001178555610648565b82800160010185558215610648579182015b8281111561064757825182559160200191906001019061062c565b5b509050610655919061067d565b5090565b61014060405190810160405280600a90602082028038833980820191505090505090565b61069f91905b8082111561069b576000816000905550600101610683565b5090565b9056fea165627a7a723058202a013fd43d5c6dd3d15c7ecc3263bdd3aed6f019e15b1d8b5b68225abcb55cf00029",
  "source": "pragma solidity ^0.5.0;\r\n\r\ncontract DinnerContract {\r\n    \r\n    struct Partcipent {\r\n        uint id;\r\n        bool isComing;\r\n        string name;\r\n        address pAddress;\r\n    }\r\n\r\n    mapping(address => Partcipent) persons;\r\n\r\n    Partcipent[10] public participents;\r\n\r\n    uint public currentNoOfParticipents;\r\n\r\n    constructor() public {\r\n        participents[0] = Partcipent(1, true, \"Organzier\", msg.sender);\r\n        currentNoOfParticipents = 1;\r\n    }\r\n\r\n    function getPartcipents() public view returns (address[10] memory) {\r\n        address[10] memory list;\r\n        for(uint i = 0; i < 10; i++) {\r\n            list[i] = participents[i].pAddress;\r\n        }\r\n        return list;\r\n    }\r\n\r\n    function updateParticipentState(string memory name, bool isComing) public {\r\n        require(isComing && currentNoOfParticipents < 10, \"No Seats left\");\r\n        participents[currentNoOfParticipents - 1] = Partcipent(++currentNoOfParticipents,isComing, name, msg.sender);\r\n    }\r\n}",
  "sourcePath": "C:/Rajesh/Development/Source/Practices/ethereum/contracts/DinnerContract.sol",
  "compiler": {
    "name": "solc",
    "version": "0.5.0+commit.1d4f565a.Emscripten.clang"
  },
  "schemaVersion": "3.0.1",
  "updatedAt": "2019-01-27T08:27:59.727Z",
  "devdoc": {
    "methods": {}
  },
  "userdoc": {
    "methods": {}
  }
}